:020000040800F2
:1000000000800020F9020008FF0200080303000836
:100010007503000879030008C10300080000000010
:1000200000000000000000000000000009040008BB
:100030000D04000800000000110400082D1B00083A
:1000400025040008250400082504000825040008EC
:1000500025040008250400082504000825040008DC
:1000600025040008250400082504000825040008CC
:1000700025040008250400082504000825040008BC
:1000800025040008250400082504000800000000DD
:10009000000000000000000000000000250400082F
:1000A000250400082504000825040008250400088C
:1000B000000000000000000000000000250400080F
:1000C000250400082504000825040008250400086C
:1000D000250400082504000825040008000000008D
:1000E00025040008250400080000000000000000AE
:1000F00000000000000000000000000025040008CF
:1001000000000000000000002504000800000000BE
:1001100000000000000000002504000800000000AE
:10012000250400082504000825040008250400080B
:10013000250400080000000000000000000000008E
:1001400000000000000000000000000000000000AF
:1001500025040008250400082504000825040008DB
:10016000000000000000000000000000000000008F
:10017000000000000000000000000000000000007F
:10018000250400082504000800000000000000000D
:10019000000000002504000800000000000000002E
:1001A000000000000000000000000000000000004F
:1001B000000000000000000000000000250400080E
:1001C000250400082504000800B583B001F036FBC3
:1001D000384B394A1360394A1360394906E052F8FE
:1001E000041B43F8041B9842F9D86146354B9942E9
:1001F00005D20A684B6801F10C0C8868F3E72E4BB6
:100200001A68314B9A4200D0FEE72C4B1A682F4BEC
:100210009A42F9D1274B2E4A13602E4A13602E4A78
:1002200000E002462D4B9A4209D2104650F8083B96
:1002300051689942F5D9002243F8042BF9E7244B81
:100240001B6813B9234B1B6803B1FEE701F0AAFB3F
:10025000694601A800F0E8FF214C224BE41AA410E3
:10026000002504E01F4B53F8253098470135AC4278
:10027000F8DC1D4C1D4BE41AA410002504E01B4BB8
:1002800053F8253098470135AC42F8DC00990198C5
:1002900001F0CAFB0546164C164BE41AA41004E004
:1002A000013C144B53F824309847002CF8DC2846C6
:1002B00000F056FFBABADECA000000207400002029
:1002C0002804000840040008785634123254769806
:1002D000780000203C020020400400085004000880
:1002E000500400085004000850040008500400089E
:1002F000500400085004000808B5FFF765FF00BE71
:10030000FEE71EF0040F0CBFEFF30880EFF3098047
:100310007146414A10472DE9F04182B004460D462E
:10032000124B5F6BD3F838809E6A1B6B13F0020F81
:1003300003D00E4BDB6A002B0BDB0D4801F036F9C6
:10034000009543463A463146204601F07DF900BE0D
:10035000FEE74BF6AB6101F0F1F90028EDD0034B5D
:100360004FF00042DA6202B0BDE8F08100ED00E03B
:100370000833000800BEFEE71EF0040F0CBFEFF3C9
:100380000880EFF309807146244A10472DE9F041B7
:1003900082B004460D46084B5F6BD3F838809E6AE6
:1003A000064801F003F9009543463A463146204697
:1003B00001F04AF900BEFEE700ED00E01833000846
:1003C0001EF0040F0CBFEFF30880EFF309807146B5
:1003D000134A10472DE9F04182B004460D46084B00
:1003E0005F6BD3F838809E6A064801F0DFF800950D
:1003F00043463A463146204601F026F900BEFEE764
:1004000000ED00E02433000800BEFEE700BEFEE77A
:1004100000BEFEE770470000170300088D030008C8
:08042000D503000800BEFEE751
:10042800843500080000002078000020843500088A
:10043800000000100000001078000020400200209A
:0804480000000010000000108C
:1004500010B504460E4B1A784FF47A73B3FBF2F3DF
:100460000C4A1068B0FBF3F000F0A8F868B90F2C44
:1004700001D901200AE0002221464FF0FF3000F0B0
:1004800057F8054B1C60002000E0012010BD00BFA4
:10049000040000200C0000200800002008B50B4BD1
:1004A0001A6842F400721A601A6842F480621A6094
:1004B0001A6842F480721A60032000F01BF80F20C3
:1004C000FFF7C6FF01F000FB002008BD003C024022
:1004D000034A1168034B1B780B441360704700BF3D
:1004E0007C00002004000020014B1868704700BF0A
:1004F0007C00002010B50446C31E042B0FD80A4A06
:10050000D36823F4E0631B041B0C240204F4E064AE
:10051000234343F0BF6343F40033D36010BD922103
:10052000024801F047FAEAE700ED00E02831000850
:1005300070B505460C4616460F2A25D80F2C28D82C
:100540001B4BDB68C3F30223C3F10702042A28BF55
:100550000422191D062921D9033B4FF0FF3101FA6E
:1005600002F224EA02049C40994026EA010644EA89
:100570000602002D14DB1201D2B205F1604505F52B
:10058000614585F8002370BDAA210A4801F012FADE
:10059000D4E7AB21074801F00DFAD1E70023DCE7EF
:1005A00005F00F051201D2B2034B5A55EBE700BF1D
:1005B00000ED00E02831000814ED00E00138B0F152
:1005C000807F0BD24FF0E0235861054AF02182F87A
:1005D00023100020986107221A617047012070479C
:1005E00000ED00E010B50446042800D040B9042C0A
:1005F0000CD04FF0E022136923F00403136110BD07
:1006000040F2C911054801F0D5F9F0E74FF0E022BA
:10061000136943F004031361F1E700BF28310008B8
:100620002DE9F04383B007460E468E4B98420FD01B
:1006300003F5806398420BD003F58063984207D09E
:1006400003F5A053984203D0B321874801F0B2F9D3
:1006500033689AB212B11B0C1B041BB1B42182483F
:1006600001F0A8F97368012B11D9804A93420ED08A
:1006700015D8A2F58012934209D003D97C4A93423F
:1006800005D017E0032B07D9113B012B12D8B36813
:10069000022B14D80024BCE0022B0BD3F7E7754AD9
:1006A0009342F4D002F580329342F0D0A2F580124A
:1006B0009342ECD0B5216C4801F07CF9E7E7B62114
:1006C000694801F077F9E5E7F368032B00F2B7809A
:1006D000BA68610003238B4022EA0302F3688B406F
:1006E0001343BB607A6822EA05027368C3F3001300
:1006F000A34013437B60FA6865000323AB406FEAB5
:10070000030922EA0302B368AB401343FB6073683A
:10071000022B01D0122B15D13369092B02D90F2BD3
:1007200040F09280E208083257F8220004F00701F6
:1007300089000F238B4020EA030033698B40034379
:1007400047F822303B6809EA0309736803F00303A2
:10075000AB4043EA09033B60736813F0805F57D0F6
:1007600000230193444B5A6C42F480425A645B6C00
:1007700003F480430193019BA208911C3F4B53F863
:10078000210004F0030189000F238B4020EA0300BD
:10079000344B9F425FD003F580639F425DD003F5E9
:1007A00080639F4255D007238B4003430232334975
:1007B00041F82230324B1A686FEA080322EA080136
:1007C000706810F4803F01D048EA02012C4A1160A1
:1007D000526803EA0201706810F4003F01D048EA51
:1007E0000201274A5160926803EA0201706810F41E
:1007F000801F01D048EA0201214A9160D26813406B
:10080000716811F4001F01D048EA02031C4AD3604A
:1008100001340F2C23D80125A540336803EA0508CD
:1008200035EA0303F4D173685A1E012A7FF64CAFF0
:10083000112B3FF449AF122B7FF45DAF44E7C82181
:10084000094801F0B7F843E7E021074801F0B2F8A2
:1008500068E70223A8E70023A6E70123A4E703B083
:10086000BDE8F083000002405C3100080000211068
:100870000000121000003110003802400038014022
:10088000003C014070B5054614460E4621B1012CCE
:1008900008D86CB1AE6170BD40F29F11064801F0FE
:1008A00089F8F4E74FF4D071034801F083F8F0E7DA
:1008B0003604AE61EFE700BF5C310008002800F0AD
:1008C0005B8270B582B0044603680F2B39D8236869
:1008D00013F0010F4DD063682BB1B3F5803F02D008
:1008E000B3F5A02F32D1804B9B6803F00C03042B8F
:1008F00036D07D4B9B6803F00C03082B2BD063682C
:10090000B3F5803F5FD0B3F5A02F62D0764B1A6865
:1009100022F480321A601A6822F480221A60636816
:10092000002B60D0FFF7E0FD05466F4B1B6813F40A
:10093000003F1ED1FFF7D8FD401B6428F5D90320E6
:1009400021E2E821694801F035F8C0E7ED21674868
:1009500001F030F8C7E7644B5B6813F4800FCED02A
:10096000614B1B6813F4003F03D06368002B00F059
:100970000582236813F0020F66D0E368012B41D88B
:1009800023691F2B44D8584B9B6813F00C0F4AD097
:10099000554B9B6803F00C03082B3FD0E368002BFA
:1009A00077D0534B01221A60FFF79EFD05464E4B50
:1009B0001B6813F0020F63D1FFF796FD401B02285E
:1009C000F5D90320DFE1484A136843F4803313600C
:1009D000A5E7454B1A6842F480221A601A6842F46F
:1009E00080321A609BE7FFF77FFD05463E4B1B6890
:1009F00013F4003FBDD0FFF777FD401B6428F5D905
:100A00000320C0E140F21F11384800F0D3FFB7E7E0
:100A10004FF49071354800F0CDFFB4E7324B5B687E
:100A200013F4800FBAD1304B1B6813F0020F03D0C0
:100A3000E368012B40F0A4812B4A136823F0F803EC
:100A4000216943EAC1031360236813F0080F51D0F2
:100A50006369012B2FD863699BB3254B0122C3F82F
:100A6000802EFFF741FD05461F4B5B6F13F0020F11
:100A700040D1FFF739FD401B0228F5D9032082E160
:100A8000194A136823F0F803216943EAC10313608C
:100A9000DAE7174B00221A60FFF726FD0546124BD6
:100AA0001B6813F0020FCFD0FFF71EFD401B02287A
:100AB000F5D9032067E14FF4B0710C4800F07AFFDC
:100AC000C9E70B4B0022C3F8802EFFF70DFD05464A
:100AD000054B5B6F13F0020F0CD0FFF705FD401BB9
:100AE0000228F5D903204EE1003802408C3100087D
:100AF00000004742236813F0040F7CD0A368012B49
:100B000001D9052B38D1A44B1B6C13F0805F39D170
:100B100000230193A04B1A6C42F080521A641B6CA4
:100B200003F080530193019B01259C4B1B6813F438
:100B3000807F29D0A368012B3AD0052B3ED0964B5D
:100B40001A6F22F001021A671A6F22F004021A6764
:100B5000A368002B3CD0FFF7C7FC06468E4B1B6FEB
:100B600013F0020F45D1FFF7BFFC801B41F2883321
:100B70009842F3D9032006E14FF4C671884800F08B
:100B800019FFC0E70025D0E7844A136843F4807357
:100B90001360FFF7A9FC0646804B1B6813F4807FA7
:100BA000C8D1FFF7A1FC801B0228F5D90320EAE099
:100BB000794A136F43F001031367C9E7764B1A6F45
:100BC00042F004021A671A6F42F001021A67BFE787
:100BD000FFF78AFC0646704B1B6F13F0020F08D01C
:100BE000FFF782FC801B41F288339842F3D903203F
:100BF000C9E0002D3ED1A369022B41D8A369002B87
:100C000000F0C080644A926802F00C02082A00F0EA
:100C10009380022B7CD1E36913B1B3F5800F35D1FA
:100C2000236A3F2B38D8636A323BB3F5BF7F39D88C
:100C3000A36A022B08D0082B3AD84FF4A87222FAE4
:100C400003F313F0010F33D0E36A023B0D2B35D8C9
:100C5000544B00221A66FFF747FC05464E4B1B68B3
:100C600013F0007F30D0FFF73FFC401B0228F5D97E
:100C7000032088E0484A136C23F080531364BAE7DA
:100C800040F2CF11464800F095FEB7E74FF4EC7103
:100C9000434800F08FFEC3E740F2D911404800F00E
:100CA00089FEC0E74FF4ED713D4800F083FEBFE7D9
:100CB00040F2DB113A4800F07DFEC5E74FF4EE71DB
:100CC000374800F077FEC3E7E369226A1343626A9C
:100CD00043EA8213A26A5208013A43EA0243E26AF3
:100CE00043EA02632C4A53602E4B01221A66FFF737
:100CF000FBFB0446284B1B6813F0007F06D1FFF76F
:100D0000F3FB001B0228F5D903203CE000203AE069
:100D1000244B00221A66FFF7E7FB04461E4B1B68B4
:100D200013F0007F06D0FFF7DFFB001B0228F5D988
:100D3000032028E0002026E0012B26D0164B5B681C
:100D400003F48001E269914221D103F03F02216A5C
:100D50008A421ED1616A47F6C0721A408A4223D184
:100D600003F44032A16A8A4220D103F07063E26A40
:100D700093421DD1002006E001207047012002E0CF
:100D8000012000E0002002B070BD0120FBE701203F
:100D9000F9E70120F7E700BF00380240007000408B
:100DA0008C310008000047420120ECE70120EAE70F
:100DB0000120E8E708B5334B9B6803F00C03042BD4
:100DC0005BD0082B5BD12F4B5A6802F03F025B6867
:100DD00013F4800F2CD02B4B5868C0F388104FEAC7
:100DE000401CBCEB000C6EEB0E0E4FEA8E1343EA78
:100DF0009C634FEA8C11B1EB0C0163EB0E03DB003B
:100E000043EA5173C90011EB000C43F1000359028E
:100E100000234FEA4C2041EADC5100F08DFE194BD3
:100E20005B68C3F3014301335B00B0FBF3F027E0E1
:100E3000144B5868C0F388104FEA401CBCEB000C00
:100E40006EEB0E0E4FEA8E1343EA9C634FEA8C1151
:100E5000B1EB0C0163EB0E03DB0043EA5173C900F5
:100E600011EB000C43F10003990200234FEA8C20A0
:100E700041EA9C5100F060FED1E7034800E00348DE
:100E800008BD00BF0038024000127A000024F400C0
:100E9000002800F0FA8070B50D4604460368013B57
:100EA0000E2B30D8072D34D87C4B1B6803F00F0372
:100EB000AB4208D2EBB2794A1370136803F00F0308
:100EC000AB4240F0E480236813F0020F32D013F0FD
:100ED000040F04D0724A936843F4E053936023688C
:100EE00013F0080F04D06E4A936843F46043936094
:100EF000A368C3B1C02B16D049D8A02B13D00ED9EC
:100F0000B02B10D049E040F25121664800F052FD6C
:100F1000C8E740F25221634800F04CFDC4E7802B43
:100F200001D0902B39D15E4A936823F0F003A16879
:100F30000B439360236813F0010F48D06368032BC1
:100F400031D86368012B34D09A1E012A38D9544A0B
:100F5000126812F0020F00F09C8051498A6822F05A
:100F6000030213438B60FFF7BFFA06464C4B9B68A6
:100F700003F00C036268B3EB820F28D0FFF7B4FADA
:100F8000801B41F288339842F0D9032070E0E02BB7
:100F9000C9D0F02BC7D0D02BC5D040F27521414825
:100FA00000F008FDBFE74FF41F713E4800F002FD5E
:100FB000C7E73B4A126812F4003FCED1012057E048
:100FC000374A126812F0007FC7D1012050E0334B3E
:100FD0001B6803F00F03AB4207D9EAB22F4B1A701C
:100FE0001B6803F00F03AB4255D1236813F0040FC5
:100FF00014D0E3685BB1B3F5805F08D0B3F5A05FB0
:1010000005D0B3F5C05F02D0B3F5E05F31D1244A1B
:10101000936823F4E053E1680B439360236813F073
:10102000080F15D023695BB1B3F5805F08D0B3F525
:10103000A05F05D0B3F5C05F02D0B3F5E05F1ED16D
:10104000174A936823F46043216943EAC10393601C
:10105000FFF7B0FE124B9B68C3F30313124AD35C35
:10106000D840124B1860124B1868FFF7F1F90020B6
:1010700070BD40F2BA210B4800F09CFCC7E740F27B
:10108000C121084800F096FCDAE7012070470120F2
:10109000EEE70120ECE70120EAE700BF003C024058
:1010A000003802408C310008343300080C00002066
:1010B00008000020014B1868704700BF0C0000209A
:1010C00008B503460C4A12685AB10B4A106803333C
:1010D00023F003030344094A934206D8064A1360E7
:1010E00008BD054A06491160EFE700F0A7FE0C2392
:1010F00003604FF0FF30F3E780000020007C002009
:1011000040020020132809D8064B53F83030B3F1C1
:10111000FF3F05D0034B03EBC00070470020704732
:10112000002070470C01002030B513240025204614
:101130002946ABBE0446204630BD38B5044600F013
:101140007DFE0546FFF7F0FF2860204638BDB0F170
:10115000FF3F00D0704708B5FFF7EFFF08BD000064
:1011600000B530B9044D182420462946ABBE0446CC
:10117000FEE7024DF7E700BF260002002300020051
:101180002DE9F04184B0234F0197032603960023F5
:101190000293012401AD20462946ABBE80461E4B7A
:1011A000C3F8008001970396042302932046294642
:1011B000ABBE8046194BC3F8008001970396082305
:1011C000029320462946ABBE0446154B1C60B4F181
:1011D000FF3F01D000230AE0104B1A68104B1A6041
:1011E000F8E7104A4FF0FF3142F833100133132B68
:1011F000F7DD0C4B084A12681A6000225A60074952
:1012000009689960DA600649096819615A6104B091
:10121000BDE8F081BC310008040100200801002075
:10122000000100200C0100202DE9F04383B081462D
:1012300088462A4B00934F23019315276C46384666
:101240002146ABBE0746AFBB244B002283F84F209C
:10125000009A3E463C463D4607E001321E46204B82
:1012600043F8252001350124013292F90030FBB109
:1012700064B91C49C9560029F6DB092BF4D0082DA6
:1012800016DC222BE9D0272BE9D1E6E736B19E42C6
:10129000EAD1002313703E463C46E5E71149C956A2
:1012A000002901DB092BDFD1002313703446DBE773
:1012B0003DB900E00025094B00221A70084A13606E
:1012C0000135074B002243F82520C9F80050C8F823
:1012D0000030FFF755FF03B0BDE8F0838400002025
:1012E000D4000020E433000830B585B001900291AD
:1012F0000392062401AD20462946ABBE0446204693
:10130000FFF725FF05B030BD70B50D461446FFF759
:10131000F9FE68B10646224629460068FFF7E4FF59
:10132000B0F1FF3F03D0201A73680344736070BDAF
:1013300000F084FD092303604FF0FF30F7E7F0B5BC
:1013400083B00C461546FFF7DDFEC0B10646022D00
:101350001CD8012D21D0022D29D03368009301948F
:101360000A256F4628463946ABBE05462846FFF794
:10137000EEFE00282BDB7460204603B0F0BD00F0C9
:101380005DFD092303604FF0FF30F6E700F056FDE6
:10139000162303604FF0FF30EFE74368E418DCD515
:1013A00000F04CFD162303604FF0FF30E5E70368C3
:1013B00000930C256F4628463946ABBE05462846A5
:1013C000FFF7C5FEB0F1FF3FD7D00444C5E74FF0AB
:1013D000FF30D2E708B5FFF7B2FF08BD30B585B0E2
:1013E000019002910392052401AD20462946ABBE2F
:1013F00004462046FFF7ABFE05B030BD70B50D4684
:101400001446FFF77FFE70B1064622462946006863
:10141000FFF7E4FF031E11DBE01A726802447260FA
:101420009C4207D070BD00F009FD092303604FF016
:10143000FF30F7E70020FFF780FEF3E74FF0FF30C3
:10144000F0E730B583B00190022401AD2046294673
:10145000ABBE04462046FFF77AFE03B030BD000065
:1014600038B50446FFF74EFE80B10546601E0128E0
:1014700004D80C4B9A681B699A420ED02868FFF773
:10148000E0FF10B94FF0FF332B6038BD00F0D6FC01
:10149000092303604FF0FF30F7E74FF0FF332B6075
:1014A0000020F2E70C01002070B50C46FFF72AFE81
:1014B000A8B10646636843F4005363604FF4806349
:1014C000A3640C2528463146ABBE05462846FFF7E7
:1014D0003EFEB0F1FF3F01D02061002070BD00F062
:1014E000ADFC092303604FF0FF30F7E738B5054640
:1014F0000C4658220021204600F002FD21462846D5
:10150000FFF7D2FF38BD38B5FFF7FCFD80B10546C7
:10151000092420462946ABBE04462046012C06D0AD
:1015200000F08CFC0446FFF7FFFD2060002038BD72
:1015300000F084FC092303600020F8E7F0B585B0D3
:1015400006460D46154B1B688BB9154B01930423BA
:10155000029303230393012401AF20463946ABBE17
:1015600004462046B4F1FF3F13D00C4B1C600B4BDC
:101570001B68019302960395052401AE204631466F
:10158000ABBE04462046B4F1FF3F02D0A54202D0D4
:10159000281B05B0F0BD4FF0FF30FAE7AC0100208A
:1015A000BC31000808B5FFF7C9FF08BD0FB400B58E
:1015B00083B004AB53F8042B01938021074800F05B
:1015C000D1FD002804DC03B05DF804EB04B07047E3
:1015D00001460248FFF7E6FFF5E700BFB001002033
:1015E00010B5044600F002FD01462046FFF7DAFF81
:1015F00001210248FFF7D6FF10BD00BF843200086A
:1016000070B505460E4601460B48FFF7CFFF002494
:1016100005E056F824100948FFF7C8FF0134AC4232
:1016200005DA002CF5D00648FFF7C0FFF1E70548C2
:10163000FFF7BCFF70BD00BFC0310008DC310008FF
:10164000D8310008E4310008F8B504460D461746C5
:101650001E462748FFF7AAFF21682648FFF7A6FF86
:1016600061682548FFF7A2FFA1682448FFF79EFFA5
:10167000E1682348FFF79AFF21692248FFF796FFA8
:1016800061692148FFF792FFA1692048FFF78EFFAB
:10169000E1691F48FFF78AFF1E48FFF787FF2946C9
:1016A0001D48FFF783FF1D4CE16A1D48FFF77EFFD1
:1016B000216B1C48FFF77AFFE16B1B48FFF776FFB1
:1016C00015F0800F0AD115F4004F0CD11748FFF721
:1016D0006DFF06991648FFF769FFF8BD39461548B2
:1016E000FFF764FFEFE731461348FFF75FFFEDE7D1
:1016F000EC310008FC3100080C3200081C320008F4
:101700002C3200083C3200084C3200085C320008E1
:101710006C3200087C3200088832000800ED00E0DE
:1017200098320008A8320008B8320008E8320008F1
:10173000F0320008C8320008D832000838B5836992
:101740001B888B4201D0002038BD044603684568E1
:10175000013B302B69D8DFE803F046211C1C5E30CA
:10176000332D1919681919191919361924681927E7
:101770006839686868686868686868686868686818
:101780006868686868686868681919004FF0FF330E
:101790000360A3690233A3610120D5E7002303603E
:1017A000F7E700230360F4E700232B606B60AB6076
:1017B000EB60EEE700230360EBE7AB680360E8E76C
:1017C00000230360E5E700230360E2E7BFF34F8FE8
:1017D0001749CA6802F4E062164B1343CB60BFF3AB
:1017E0004F8F00BFFDE71449286800F0F5FB40B9B2
:1017F0006B6813B901232360CBE7042B05D0082BBA
:1018000006D04FF0FF332360C3E702232360C0E715
:1018100003232360BDE72B68023B012B02D9AB6891
:101820000360B6E700230360B3E700208CE700BF46
:1018300000ED00E00400FA05BC31000808B500F036
:1018400009F8024A024B9A6008BD00BF0000000878
:1018500000ED00E0024B4FF000629A60704700BF5D
:1018600000ED00E0224B9B6803F00C03042B14D026
:10187000082B16D01BB11F4B1F4A1A6002E01D4BEC
:101880001D4A1A601A4B9B68C3F303131B4AD15CB1
:10189000184A1368CB4013607047164B184A1A60F9
:1018A000F0E7134B59685A6802F03F0211F4800FB9
:1018B00013D0134BB3FBF2F30D4A5268C2F38812F4
:1018C00002FB03F30A4A5268C2F30142013252009A
:1018D000B3FBF2F3074A1360D4E7074BB3FBF2F311
:1018E000034A5268C2F3881202FB03F3EAE700BF1F
:1018F000003802400C0000200024F40034330008BB
:1019000000127A0070B594B000240094224B1A6C37
:1019100042F080521A641B6C03F080530093009BCA
:1019200001941E4B1A6842F440421A601B6803F48B
:1019300040430193019B012307934FF480330893A5
:101940004FF480030E9308230F934FF4A873109362
:10195000042511950723129302260D9607A8FEF77A
:10196000ADFF0F230293039604944FF4A053059305
:101970004FF480530693052102A8FFF789FAFFF779
:1019800099FB074BA3FB00308009FEF717FE2846A2
:10199000FEF728FE14B070BD003802400070004011
:1019A000D34D621008B5FEF779FDFFF7ABFFFFF7E7
:1019B00059FF08BD08B50A4601460248FFF7F6FD83
:1019C000FEE700BF4433000808B501224FF4805100
:1019D0000148FEF757FF08BD000C024008B5002281
:1019E0004FF480510148FEF74DFF08BD000C024046
:1019F00000B587B00A4A136B43F0080313634FF432
:101A0000805301930123029302220492039301A9BC
:101A10000448FEF705FEFFF7E1FF07B05DF804FBA1
:101A200000380240000C024070B504460D46FFF736
:101A3000E7FD1E48FFF7D4FD1D4800F0C5FA1D4B19
:101A40001B68DB68182201211B4800F04BFA1B4B76
:101A500019681B48FFF7AAFD00F038F8FFF7C8FF28
:101A6000012C03DC05260024254613E0686800F0FD
:101A7000E1F90646F7E74FF47A7000F043F8FFF714
:101A8000ADFFFA2000F03EF8013529460D48FFF77A
:101A90008DFD0134A64206DDFFF796FF002CEAD04B
:101AA00040F2EE20E9E7002070BD00BF743300086B
:101AB0008833000810000020A43300080C00002028
:101AC000C0330008D8330008704700000A4B1B6879
:101AD0000A4AA2FB03239B09013BB3F1807F0AD290
:101AE0004FF0E0225361064BF02183F823100023CE
:101AF00093610723136170470C000020D34D6210DF
:101B000000ED00E0034B1860024B1B68002BFBD17B
:101B1000704700BF30020020034B1B681BB1024A14
:101B20001368013B136070473002002008B5FEF7D0
:101B3000CFFCFFF7F1FF08BD53B94AB9002908BF30
:101B400000281CBF4FF0FF314FF0FF3000F070B99C
:101B5000ADF1080C6DE904CE00F006F8DDF804E004
:101B6000DDE9022304B070472DE9F047089E0D46D9
:101B700004460F46002B4AD18A42944665D9B2FAF0
:101B800082F343B102FA03FCC3F120029F4020FA22
:101B900002F217439C404FEA1C4E1FFA8CF5B7FB2C
:101BA000FEF1220C0EFB117742EA074201FB05F021
:101BB00090420AD91CEB020201F1FF3780F01B8131
:101BC000904240F2188102396244121AA4B2B2FB68
:101BD000FEF00EFB102244EA024400FB05F5A5428C
:101BE0000AD91CEB040400F1FF3280F00681A54203
:101BF00040F203816444023840EA0140641B002142
:101C00001EB1DC400023C6E90043BDE8F0878B42EB
:101C100008D9002E00F0EC800021C6E90005084636
:101C2000BDE8F087B3FA83F1002949D1AB4202D372
:101C3000824200F2F780841A65EB03020120174606
:101C4000002EE2D0C6E90047DFE702B9FFDEB2FAB4
:101C500082F3002B40F08F808A1A4FEA1C471FFA4C
:101C60008CFE0121B2FBF7F507FB1520220C42EA9E
:101C700000420EFB05F0904208D91CEB020205F170
:101C8000FF3802D2904200F2CA804546121AA4B22E
:101C9000B2FBF7F007FB102244EA02440EFB00FE01
:101CA000A64508D91CEB040400F1FF3202D2A64578
:101CB00000F2BA801046A4EB0E0440EA05409FE70C
:101CC000C1F120078B4022FA07FC4CEA030C05FA0D
:101CD00001F420FA07F3FD40234300FA01F94FEA2B
:101CE0001C401FFA8CFEB5FBF0F81C0C00FB1855CD
:101CF00044EA054408FB0EF5A54202FA01F20BD9AD
:101D00001CEB040408F1FF3A80F08780A54240F202
:101D10008480A8F102086444641B9DB2B4FBF0F314
:101D200000FB134445EA044403FB0EFEA64508D914
:101D30001CEB040403F1FF306BD2A64569D9023BCA
:101D4000644443EA0840A0FB0283A4EB0E049C42D7
:101D5000C6461D4655D352D056B1B9EB0E0364EBBF
:101D6000050404FA07F7CB40CC401F43C6E90074D2
:101D70000021BDE8F087C3F1200102FA03FC20FA3C
:101D800001F225FA01F19D402A434FEA1C471FFA50
:101D90008CFEB1FBF7F007FB1015110C41EA054171
:101DA00000FB0EF58D4204FA03F408D91CEB010187
:101DB00000F1FF382FD28D422DD902386144491BE2
:101DC00092B2B1FBF7F507FB151142EA014205FBA0
:101DD0000EF1914208D91CEB020205F1FF3816D230
:101DE000914214D9023D6244521A45EA004139E752
:101DF0003146304609E73946E7E61046FCE6C1457C
:101E0000AAD2B8EB020E63EB0C050138A4E74546F5
:101E1000EAE7034695E74046D1E7D0467CE7023D36
:101E2000624433E708460BE76444023843E700BFE7
:101E3000704700BF0A22002100F05EB9014B18680C
:101E4000704700BF100000202DE9F047089C8A462B
:101E5000904602FB03F9054618B183690BB900F0FF
:101E60003BFB1D4B9C421AD16C68A3891B0720D5F4
:101E70002369F3B100264E4529D0A7681AF8061049
:101E8000013F002FA76004DAA3699F4219DB0A29EA
:101E900017D023685A1C226019700136EBE70F4BEC
:101EA0009C4201D1AC68E0E70D4B9C4208BFEC6856
:101EB000DBE72146284600F0B5F90028DAD00026F5
:101EC00005E02246284600F05BF90130E5D1B6FB7B
:101ED000F8F0BDE8F08700BF083500082835000895
:101EE000E834000807B5009313460A460146034844
:101EF0000068FFF7A9FF03B05DF804FB10000020A5
:101F000002440346934200D1704703F8011BF9E7EE
:101F100070B50E46054618B183690BB900F0DCFABE
:101F2000AB69AC6813B9284600F0D6FA234B9C4243
:101F300017D16C68A3891B071DD52369DBB1013E4E
:101F4000A36816F8011F013BA360E9B9002B2EDA44
:101F500022460A21284600F013F9013011D00A2048
:101F600011E0174B9C4201D1AC68E3E7154B9C4252
:101F700008BFEC68DEE72146284600F053F9002848
:101F8000DDD04FF0FF3070BD002B04DAA2699A4219
:101F900006DC0A2904D023685A1C22601970CFE796
:101FA0002246284600F0ECF80130C9D1E9E7236861
:101FB0000A205A1C22601870E5E700BF08350008A7
:101FC00028350008E8340008024B01461868FFF77E
:101FD0009FBF00BF1000002010F8012B11F8013B3B
:101FE000012A28BF9A42F7D0D01A7047034613F847
:101FF000012B002AFBD1181A01387047012B2DE95B
:10200000F0478646904601D0242B06D9FFF716FFED
:10201000162303600020BDE8F08736480D462A46A7
:1020200015F8014B065D16F00806F8D12D2C2ED1BF
:102030002C780126951C002B57D0102B09D1302C61
:1020400007D12A7802F0DF02582A49D16C78102390
:10205000023506F1004C0CF1FF3C0022BCFBF3F909
:10206000104603FB19CAA4F13007092F14D83C46C7
:10207000A34220DD571C07D0814519D301D1A245C9
:1020800016DB00FB0340012215F8014BEBE72B2C7C
:1020900004BF2C78951CCEE7A4F14107192F01D875
:1020A000373CE5E7A4F16107192F04D8573CDFE777
:1020B0004FF0FF32E8E7531C08D12223CEF800305E
:1020C0006046B8F1000FA6D0691E06E006B1404296
:1020D000B8F1000F9FD0002AF6D1C8F800109AE797
:1020E0003024002BB5D10823B3E7302CA9D00A2324
:1020F000AFE700BFE433000813460A460146024832
:102100000068FFF77BBF00BF1000002030B5144609
:10211000002C9BB005461A4605DA8B2303604FF06E
:10212000FF301BB030BD4FF40273ADF80C3014BF5C
:1021300004F1FF332346029305934FF6FF7300919A
:102140000491ADF80E3069461E9B00F0EFFB431C76
:10215000BCBF8B232B60002CE3D0009B00221A70A5
:10216000DFE7000007B5009313460A46014603481F
:102170000068FFF7CBFF03B05DF804FB1000002000
:10218000F8B50E461446054618B183690BB900F040
:10219000A3F9214B9C422BD16C68A369A360A3894E
:1021A0001A072FD523696BB323692068C01A6369A6
:1021B000F6B28342374604DC2146284600F022F975
:1021C00030BBA368013BA36023685A1C22601E70C9
:1021D00063690130834204D0A389DB0706D50A2E48
:1021E00004D12146284600F00DF988B93846F8BDDB
:1021F0000A4B9C4201D1AC68CFE7094B9C4208BF17
:10220000EC68CAE72146284600F00CF80028CBD03D
:102210004FF0FF37EAE700BF08350008283500080F
:10222000E8340008324B70B51D6806460C4625B1EF
:10223000AB6913B9284600F04FF92E4B9C420FD1E1
:102240006C68A389B4F90C2019072CD4DD0611D4CD
:102250000923336042F04003A3814FF0FF303EE09A
:10226000254B9C4201D1AC68EBE7244B9C4208BF54
:10227000EC68E6E7580712D5616B41B104F14403FD
:10228000994202D0304600F019FA00236363A38913
:1022900023F02403A3810023636023692360A389BF
:1022A00043F00803A38123694BB9A38903F4207386
:1022B000B3F5007F03D02146304600F0BFF9A08976
:1022C000B4F90C2010F001030AD00023A360636965
:1022D0005B42A361236943B910F08000BAD170BD9D
:1022E000810758BF6369A360F4E70020F7E700BFE8
:1022F000100000200835000828350008E8340008E0
:102300008A89F8B5054610070C4657D44B68002B50
:1023100004DC0B6C002B01DC0020F8BDE66A002E0B
:10232000FAD0002312F480522F68216A2B6032D039
:10233000606DA3895A0705D56368C01A636B0BB13A
:10234000236CC01A00230246E66A216A2846B04779
:10235000431CA38906D129681D292BD8284A0A4184
:10236000D60727D400226260D9042269226004D5EE
:10237000421C01D12B6803B96065616B2F60002995
:10238000CAD004F14403994202D0284600F096F9DD
:1023900000206063C1E701232846B047411CC8D133
:1023A0002B68002BC5D01D2B01D0162B01D12F601F
:1023B000B2E7A38943F04003A381AEE70F69002F82
:1023C000AAD093070E6808BF4B690F6018BF00239F
:1023D000F61B8B60002E9FDD216AD4F828C033469F
:1023E0003A462846E047002806DCA38943F040032C
:1023F000A3814FF0FF3090E70744361AEAE700BFA9
:10240000FEFFBFDF38B50B6905460C46DBB118B1DE
:1024100083690BB900F060F80C4B9C4209D16C68E1
:10242000B4F90C307BB121462846BDE83840FFF7AF
:1024300067BF074B9C4201D1AC68F1E7054B9C425A
:1024400008BFEC68ECE7002038BD00BF0835000885
:1024500028350008E8340008002310B50446C0E918
:102460000033C0E90433836081814366C2818361A4
:10247000194608225C30FFF743FD054B6362054BAC
:10248000A362054BE362054B2462236310BD00BFCA
:10249000692E00088B2E0008C32E0008E72E0008C6
:1024A000014900F085B800BF0524000870B5682315
:1024B0004D1E5D430E4605F1740100F069F90446B6
:1024C00040B10021C0E900160C30A06005F168029F
:1024D000FFF716FD204670BD836910B5044633BB77
:1024E000C0E912330365124B124A1B68826298429C
:1024F00004BF0123836100F01FF86060204600F0F4
:102500001BF8A060204600F017F80022E0600421CC
:102510006068FFF7A1FFA06801220921FFF79CFF77
:10252000E06802221221FFF797FF0123A36110BD8B
:10253000E4340008A1240008F8B51B4B1E68B369F9
:10254000074613B93046FFF7C7FF4836D6E90134CE
:10255000013B03D53368DBB13668F7E7B4F90C50BB
:10256000A5B9124B6566C4E90055C4E90335C4E951
:102570000555A5600822294604F15C00FFF7C0FC60
:10258000C4E90D55C4E912552046F8BD6834DFE7AB
:1025900004213846FFF78AFF044630600028DBD16B
:1025A0000C233B60F0E700BFE43400080100FFFFAC
:1025B0002DE9F8430646884600F148040027D4E98F
:1025C0000195B9F1010905D52468002CF7D13846E9
:1025D000BDE8F883AB89012B07D9B5F90E3001337B
:1025E00003D029463046C04707436835E9E770B550
:1025F0000C46B1F90E10002996B015461E460DDAAC
:10260000A38913F0800F4FF000010CBF4FF48063DB
:102610004023002031602B6016B070BD6A4600F088
:1026200089FC0028ECDB019901F47041A1F500530D
:10263000594259414FF48063EBE700008B8973B531
:102640009D0706460C4607D504F147032360236126
:102650000123636102B070BD01AB6A46FFF7C7FF9B
:1026600000990546304600F093F848B9B4F90C30AB
:102670009A05EFD423F0030343F00203A381E3E7B9
:102680000D4BB362A389206043F08003A381009BBC
:102690006361019B20615BB1B4F90E10304600F01C
:1026A0005BFC28B1A38923F0030343F00103A3815A
:1026B000A3891D43A581CDE7A124000838B50546AF
:1026C000002941D051F8043C0C1F002BB8BFE4187E
:1026D00000F0DEFC1D4A136833B9636014602846BD
:1026E000BDE8384000F0D5BCA34208D920682118C5
:1026F0008B4201BF19685B6809182160EDE71A4633
:102700005B680BB1A342FAD911685018A0420BD1F3
:1027100020680144501883421160E0D118685B685A
:10272000536008441060DAE702D90C232B60D6E727
:10273000206821188B4204BF19685B68636004BF7E
:10274000091821605460CAE738BD00BF3402002078
:1027500070B50E4E0C463168054611B900F074FB99
:1027600030602146284600F06FFB431C0AD0C41C91
:1027700024F00304A04207D0211A284600F064FB8D
:10278000013001D14FF0FF34204670BD38020020E7
:102790002DE9F041CD1C25F0030508350C2D38BF7F
:1027A0000C25002D074601DBA94205D90C233B600F
:1027B00000263046BDE8F0812E4E00F069FC3368FB
:1027C0001C4634BB29463846FFF7C2FF431C04466B
:1027D0004DD134682646002E40D123683146384614
:1027E00004EB030800F030FB80453AD12368033541
:1027F000ED1A25F0030508350C2D38BF0C252946A8
:102800003846FFF7A5FF01302BD023682B44236007
:102810000EE02268521B1ED40B2A16D96119A3425E
:10282000256018BF5960636808BF316062514B6012
:10283000384604F10B0600F02CFC26F00706231D99
:10284000F21AB6D09B1BA350B3E76268A3420CBF39
:1028500032605A60ECE723466468B2E73446766833
:10286000B9E70C233B60384600F013FCA1E7256074
:10287000DEE700BF340200202DE9F0478E681F46D6
:10288000BE420B6882460C4690462CD88A8912F4C8
:10289000906F26D06569096905EB4505A3EB010931
:1028A00005EBD5757B1C4B446D109D4238BF1D4612
:1028B000530527D52946FFF76BFF064660B321690C
:1028C0004A4600F0BDFBA38923F4906343F08003E4
:1028D000A381266165614E44A5EB09052660A560CC
:1028E0003E46BE4200D93E4620683246414600F090
:1028F000B5FBA3689B1BA3602368334423600020BF
:10290000BDE8F0872A4600F0C5FB06460028E0D166
:1029100021695046FFF7D2FE0C23CAF80030A38984
:1029200043F04003A3814FF0FF30E9E72DE9F04F7A
:1029300098468B891B069DB007460D4614460ED55A
:102940000B6963B94021FFF723FF2860286120B994
:102950000C233B604FF0FF30D0E040236B6100233D
:10296000099320238DF82930CDF80C803023DFF82F
:10297000A4818DF82A304FF0010923469A4613F8B6
:10298000012B0AB1252AF9D1BAEB040B0BD05B4617
:10299000224629463846FFF76FFF013000F0A98034
:1029A000099A5A4409929AF80030002B00F0A1804D
:1029B00000234FF0FF32CDE905230AF1010A049309
:1029C00007938DF853301A935446052214F8011BCF
:1029D000504800F0E5FA049AD8B9D00644BF202345
:1029E0008DF85330110744BF2B238DF853309AF8DC
:1029F00000302A2B15D0079A544600204FF00A0CBD
:102A0000214611F8013B303B092B4DD9B0B107925B
:102A100014E0A0EB080309FA03F313430493A2465E
:102A2000D2E7039B191D1B680391002BBBBF5B42C0
:102A300042F0020207930793B8BF049223782E2B2B
:102A40000CD163782A2B34D1039B1A1D1B68039287
:102A5000002BB8BF4FF0FF3302340593DFF8B8A066
:102A600021780322504600F09BFA38B1049BA0EB7A
:102A70000A004022824013430134049314F8011BDE
:102A800026488DF82810062200F08AFA002838D04F
:102A9000234B1BBB039B073323F00703083303932C
:102AA000099B3344099368E70CFB02320C46012072
:102AB000A6E700230134059319464FF00A0C20467F
:102AC00010F8012B303A092A03D9002BC6D0059102
:102AD000C4E70CFB012104460123F0E703AB00939C
:102AE0002A46104B04A93846AFF30080421C064624
:102AF000D6D1AB895B063FF52DAF09981DB0BDE877
:102B0000F08F03AB00932A46064B04A9384600F029
:102B100079F8EBE7483500084E35000852350008D3
:102B200000000000792800082DE9F0471646994674
:102B30008A680B69DDF820809342B8BF1346336082
:102B400091F8432007460C460AB1013333602368ED
:102B5000990642BF336802333360256815F00605D5
:102B600006D104F1190AE36832689B1AAB4226DCED
:102B700094F84320131E226818BF012392062BD419
:102B800004F1430249463846C04701301ED023684D
:102B9000226903F00603042B02BFE5683368ED1ACF
:102BA000A3680CBF25EAE57500259342C4BF9B1AB4
:102BB000ED1800261A34B5421AD1002008E001238E
:102BC000524649463846C047013003D14FF0FF30E6
:102BD000BDE8F0870135C6E7E1185A1C302081F8BE
:102BE0004300224494F8451082F843100233C7E7AB
:102BF0000123224649463846C0470130E6D0013617
:102C0000D9E700002DE9FF470F7E0C9D782F9146F4
:102C100080460C469A4601F1430207D8622F0AD833
:102C2000002F00F0D480582F00F0C08004F142053E
:102C300084F842703AE0A7F16303152BF6D801A19E
:102C400051F823F09D2C0008B12C00082D2C000811
:102C50002D2C00082D2C00082D2C0008B12C00086C
:102C60002D2C00082D2C00082D2C00082D2C0008E0
:102C7000B52D0008DD2C00086F2D00082D2C000854
:102C80002D2C0008D72D00082D2C0008DD2C000865
:102C90002D2C00082D2C0008772D00082B681A1DFC
:102CA0001B682A6004F1420584F8423001239FE04A
:102CB00020682B68070603F10401296001D51E680E
:102CC00003E04606FBD5B3F90060002E03DA2D239E
:102CD000764284F843305A480A2312E02B68206871
:102CE000191D2960050601D51E6802E04106FBD5C5
:102CF0001E8853486F2F0CBF08230A23002184F835
:102D000043106568A560002DA2BF216821F0040171
:102D100021600EB9002D4BD01546B6FBF3F103FB35
:102D20001167C75D05F8017D3746BB420E46F4D9F1
:102D3000082B0BD12368DE0708D523696168994207
:102D4000DEBF302305F8013C05F1FF35521B22613F
:102D5000CDF800A04B4603AA21464046FFF7E4FE0B
:102D600001304AD14FF0FF3004B0BDE8F08723684E
:102D700043F0200323603348782784F845702368A4
:102D800029681F0651F8046B02D45F0648BFB6B22B
:102D9000DF0748BF43F02003296048BF23601EB906
:102DA000236823F0200323601023A7E72448E4E7E7
:102DB0001546BDE72B6826686169181D2860350631
:102DC0001B6801D5196002E07006FBD5198000234D
:102DD00023611546BCE72B681A1D2A601D686268CE
:102DE0000021284600F0DCF808B1401B60606368F1
:102DF0002361002384F84330AAE723692A46494621
:102E00004046D0470130ADD023689B0713D4E0681B
:102E1000039B9842B8BF1846A6E7012332464946AD
:102E20004046D04701309DD00135E36803995B1AD5
:102E3000AB42F2DCEBE7002504F11906F5E700BF31
:102E4000593500086A35000838B5064D0023044698
:102E500008462B60FEF734F9431C02D12B6803B1FE
:102E6000236038BDFC00002010B50C46B1F90E10EF
:102E700000F040F90028ABBF636DA3891B1823F451
:102E80008053ACBF6365A38110BD2DE9F0411F469F
:102E90008B89DB0505460C46164605D5B1F90E10A3
:102EA0000223002200F068F8A389B4F90E1023F47D
:102EB0008053A38132463B462846BDE8F04100F0EE
:102EC00017B810B50C46B1F90E1000F055F8431CB8
:102ED000A38915BF606523F4805343F48053A38115
:102EE00018BFA38110BDB1F90E1000F013B8000097
:102EF00038B5074D04460846114600222A601A4696
:102F0000FEF77CFA431C02D12B6803B1236038BD65
:102F1000FC00002038B5064D0023044608462B600F
:102F2000FEF79EFA431C02D12B6803B1236038BD23
:102F3000FC00002038B5074D002304460846114622
:102F40002B60FEF7D3FA431C02D12B6803B1236038
:102F500038BD00BFFC00002038B5064D00230446F4
:102F600008462B60FEF7CFFA431C02D12B6803B151
:102F7000236038BDFC00002038B5074D04460846E4
:102F8000114600222A601A46FEF724FA431C02D199
:102F90002B6803B1236038BDFC0000200000000056
:102FA00001F0FF01102A2BDB10F0070F08D010F8FA
:102FB000013B013A8B422DD010F0070F42B3F6D1FE
:102FC000F0B441EA012141EA014122F007047FF017
:102FD00000070023F0E80256083C85EA010586EA6E
:102FE000010685FA47F5A3FA87F586FA47F6A5FAAA
:102FF00087F68EB9EED1F0BC01F0FF0102F00702B6
:1030000032B110F8013B013A83EA010313B1F8D160
:103010000020704701387047002D06BF3546033841
:10302000073815F0010F07D1013015F4807F02BF7A
:10303000013015F4C03F0130F0BC0138704700BFCB
:103040000A44914200F1FF3300D1704710B511F8E6
:10305000014B03F8014F9142F9D110BD884210B5E0
:1030600001EB020402D98442234607D8431EA14241
:1030700008D011F8012B03F8012FF8E702440146AC
:103080008A4200D110BD13F8014D02F8014DF7E757
:10309000704770472DE9F041804614460E4621B92D
:1030A000BDE8F0411146FFF773BB2AB9FFF706FBF5
:1030B00025462846BDE8F08100F02EF884420746F8
:1030C00002D8B4EB500F12D821464046FFF760FB00
:1030D00005460028EDD0BC422246314628BF3A467C
:1030E000FFF7AEFF31464046FFF7E8FAE1E7354625
:1030F000DFE7000038B5074D0446084611460022B8
:103100002A601A46FEF700F9431C02D12B6803B16E
:10311000236038BDFC00002051F8043C181F002B30
:10312000BCBF0B58C01870472E2E2F73797374656F
:103130006D2F7372632F73746D333266342D686133
:103140006C2F73746D3332663478785F68616C5FAE
:10315000636F727465782E63000000002E2E2F734B
:10316000797374656D2F7372632F73746D33326668
:10317000342D68616C2F73746D3332663478785FE8
:1031800068616C5F6770696F2E6300002E2E2F736D
:10319000797374656D2F7372632F73746D33326638
:1031A000342D68616C2F73746D3332663478785FB8
:1031B00068616C5F7263632E630000003A74740090
:1031C0006D61696E28617267633D25642C206172B0
:1031D00067763D5B000000002C2000002225732252
:1031E000000000005D293B0A000000005374616389
:1031F0006B206672616D653A0A0000002052302033
:103200003D2020253038580A00000000205231208F
:103210003D2020253038580A00000000205232207E
:103220003D2020253038580A00000000205233206D
:103230003D2020253038580A00000000205231324D
:10324000203D20253038580A00000000204C522034
:103250003D2020253038580A00000000205043202F
:103260003D2020253038580A0000000020505352DD
:10327000203D20253038580A000000004653522FC8
:103280004641523A0A0000002043465352203D2056
:1032900020253038580A00002048465352203D204F
:1032A00020253038580A00002044465352203D2043
:1032B00020253038580A00002041465352203D2036
:1032C00020253038580A0000204D4D464152203DFF
:1032D00020253038580A00002042464152203D2027
:1032E00020253038580A00004D6973630A00000039
:1032F000204C522F4558435F52455455524E3D2065
:10330000253038580A0000005B48617264466175D8
:103310006C745D0A000000005B4275734661756C59
:10332000745D0A005B55736167654661756C745D19
:103330000A00000000000000000000000102030479
:103340000607080957726F6E6720706172616D65BC
:10335000746572732076616C75653A2066696C6578
:10336000202573206F6E206C696E652025640D0A20
:103370000000000048656C6C6F2041726D20576F33
:10338000726C6421000000005374616E64617264A9
:10339000206F7574707574206D6573736167652E29
:1033A000000000005374616E646172642065727283
:1033B0006F72206D6573736167652E0A00000000EF
:1033C00053797374656D20636C6F636B3A20257558
:1033D00020487A0A000000005365636F6E64202560
:1033E000750A0000202020202020202020282828C6
:1033F00028282020202020202020202020202020BD
:103400002020202088101010101010101010101004
:103410001010101004040404040404040404101024
:1034200010101010104141414141410101010101C1
:10343000010101010101010101010101010101106D
:103440001010101010424242424242020202020296
:10345000020202020202020202020202020202103E
:10346000101010200000000000000000000000000C
:10347000000000000000000000000000000000004C
:10348000000000000000000000000000000000003C
:10349000000000000000000000000000000000002C
:1034A000000000000000000000000000000000001C
:1034B000000000000000000000000000000000000C
:1034C00000000000000000000000000000000000FC
:1034D00000000000000000000000000000000000EC
:1034E00000000000140000200000000000000000A8
:1034F00000000000000000000000000000000000CC
:1035000000000000000000000000000000000000BB
:1035100000000000000000000000000000000000AB
:10352000000000000000000000000000000000009B
:10353000000000000000000000000000000000008B
:103540000000000000000000232D302B2000686CDC
:103550004C006566674546470030313233343536B6
:1035600037383941424344454600303132333435EF
:0B35700036373839616263646566001D
:08357C00ECE5FF7F01000000F7
:103584007856341201FFFFFF100000000024F400FD
:103594001400002000000000083500082835000849
:1035A400E8340008000000000000000000000000F3
:1035B4000000000000000000000000000000000007
:1035C40000000000000000000000000000000000F7
:1035D40000000000000000000000000000000000E7
:1035E40000000000000000000000000000000000D7
:0835F40000000000325476983B
:04000005080001C925
:00000001FF
